S01100005350495F66697273742E73726563A0
S113000071C000008EC000008CC000008AC00000D7
S113001088C0000086C0000084C0000082C00000C8
S113002080C000007EC000007CC000007AC00000D8
S113003078C0000076C0000074C0000072C00000E8
S113004070C000006EC000006CC000006AC00000F8
S113005068C0000066C0000064C0000063C0000007
S113006060C000005EC000005CC000005AC0000018
S113007058C0000056C0000054C0000052C0000028
S113008050C000004EC000004CC000004AC0000038
S113009048C0000046C0000044C0000042C0000048
S11300A040C000003EC000003CC000003AC0000058
S11300B038C0000036C0000034C0000032C0000068
S11300C030C000002EC000002CC000002AC0000078
S11300D028C0000026C0000024C0000022C0000088
S11300E020C0000011241FBECFEFD1E2DEBFCDBF80
S11300F000E00CBF12E0A0E0B2E0E6E4F4E000E0CF
S11301000BBF02C007900D92A030B107D9F722E0CF
S1130110A0E0B2E001C01D92A230B207E1F74AD0DC
S113012090C16ECF1F920F920FB60F9211248F932E
S11301309F938091000290910102892B49F0809154
S113014000029091010201979093010280930002B2
S11301509F918F910F900FBE0F901F90189580E480
S113016080937C008FE080937E0087E880937A0000
S11301700895ECE7F0E09081907F90839081282FA0
S11301802770922B9083EBE7F0E09081977F908328
S113019090818870892B8083EAE7F0E08081806415
S11301A0808380917A0086FDFCCF809178009091C5
S11301B079000895CF93DF93CDB7DEB76E970FB66E
S11301C0F894DEBF0FBECDBF8AE0FE013196DF0199
S11301D0282F1D922A95E9F73A96DF01282F1D92C0
S11301E02A95E9F73A96DF011D928A95E9F70DD130
S11301F0B6DF0F2EFCEA3F2EF02D0F2EFCEA4F2E19
S1130200F02D0F2EFFE05F2EF02D612C77247394D8
S1130210812C99249394CC24C394D12C83E0A9DF1A
S11302209C013695279536952795ABE7B4E1FAD02E
S11302305C01B694A794EA2CF12C1BC00F2D10E09E
S1130240E1E0F0E0EC0FFD1FE00FF11F8081E5D04D
S1130250EBE0F0E0EC0FFD1FE00FF11F8081DDD03B
S1130260E5E1F0E0EC0FFD1FE00FF11F8081D5D038
S1130270F394B9E0BF1510F780E026C08E1108C0D2
S1130280E1E0F0E0EC0FFD1FEA0DF11D50821BC010
S1130290282F30E0E1E0F0E0EC0FFD1FE20FF31F48
S11302A090819F3040F4E1E0F0E0EC0FFD1FE20F9D
S11302B0F31F108208C0E1E0F0E0EC0FFD1FE20F35
S11302C0F31F9F5090838F5F8A30C0F280E026C076
S11302D08E1108C0EBE0F0E0EC0FFD1FEA0DF11DFC
S11302E040821BC0282F30E0EBE0F0E0EC0FFD1F54
S11302F0E20FF31F90819F3040F4EBE0F0E0EC0F4D
S1130300FD1FE20FF31F108208C0EBE0F0E0EC0FDA
S1130310FD1FE20FF31F9F5090838F5F8A30C0F25E
S113032080E026C08E1108C0E5E1F0E0EC0FFD1F6F
S1130330EA0DF11D30821BC0282F30E0E5E1F0E02A
S1130340EC0FFD1FE20FF31F90819F3040F4E5E1B5
S1130350F0E0EC0FFD1FE20FF31F108208C0E5E18F
S1130360F0E0EC0FFD1FE20FF31F9F5090838F5FAF
S11303708A30C0F2C114D10421F029E0C216D1049C
S113038021F481E0911080E0982E992021F08FEFE4
S1130390C81AD80A03C091E0C91AD10882EE850DA3
S11303A0843C20F081E0811080E0882E82EE840D70
S11303B0843C20F081E0711080E0782E82EE830D81
S11303C0843C20F081E0611080E0682E882019F0E0
S11303D0A7E05A0E02C0B9EF5B0E772019F027E0B0
S11303E0420E02C089EF480E662019F097E0390EDC
S11303F002C0A9EF3A0EBFEF2DEE82E0B1502040CB
S11304008040E1F700C0000009CF84B1876084B95F
S113041082E58CBD81E08DBD08958EBD0DB407FECF
S1130420FDCF0895A29FB001B39FC001A39F700D9B
S1130430811D1124911DB29F700D811D1124911DE8
S10904400895F894FFCFBB
S9030000FC
