S01100005350495F66697273742E73726563A0
S113000071C000008EC000008CC000008AC00000D7
S113001088C0000086C0000084C0000082C00000C8
S113002080C000007EC000007CC000007AC00000D8
S113003078C0000076C0000074C0000072C00000E8
S113004070C000006EC000006CC000006AC00000F8
S113005068C0000066C0000064C0000063C0000007
S113006060C000005EC000005CC000005AC0000018
S113007058C0000056C0000054C0000052C0000028
S113008050C000004EC000004CC000004AC0000038
S113009048C0000046C0000044C0000042C0000048
S11300A040C000003EC000003CC000003AC0000058
S11300B038C0000036C0000034C0000032C0000068
S11300C030C000002EC000002CC000002AC0000078
S11300D028C0000026C0000024C0000022C0000088
S11300E020C0000011241FBECFEFD1E2DEBFCDBF80
S11300F000E00CBF12E0A0E0B2E0ECEDF3E000E0C1
S11301000BBF02C007900D92A030B107D9F722E0CF
S1130110A0E0B2E001C01D92A230B207E1F729D0FD
S11301205BC16ECF1F920F920FB60F9211248F9363
S11301309F938091000290910102892B49F0809154
S113014000029091010201979093010280930002B2
S11301509F918F910F900FBE0F901F90189580E480
S113016080937C008FE080937E0087E880937A0000
S11301700895CF93DF93CDB7DEB76E970FB6F8949B
S1130180DEBF0FBECDBF8AE0FE013196DF01282F0E
S11301901D922A95E9F73A96DF01282F1D922A9598
S11301A0E9F73A96DF011D928A95E9F708D1D7DF7E
S11301B00F2EFCEA6F2EF02D0F2EFCEA7F2EF02D71
S11301C00F2EFFE08F2EF02DA12CBB24B394C12C55
S11301D0DD24D394EE24E394F12C912C1BC0092D3F
S11301E010E0E1E0F0E0EC0FFD1FE00FF11F808173
S11301F0EED0EBE0F0E0EC0FFD1FE00FF11F80818B
S1130200E6D0E5E1F0E0EC0FFD1FE00FF11F808187
S1130210DED09394B9E0B91510F780E029C0282FF7
S113022030E0E216F30641F4E1E0F0E0EC0FFD1FEC
S1130230EE0DFF1D80821BC0282F30E0E1E0F0E0CE
S1130240EC0FFD1FE20FF31F90819F3040F4E1E0BB
S1130250F0E0EC0FFD1FE20FF31F108208C0E1E095
S1130260F0E0EC0FFD1FE20FF31F9F5090838F5FB0
S11302708A30A8F280E029C0282F30E0E216F30685
S113028041F4EBE0F0E0EC0FFD1FEE0DFF1D70827A
S11302901BC0282F30E0EBE0F0E0EC0FFD1FE20F75
S11302A0F31F90819F3040F4EBE0F0E0EC0FFD1F72
S11302B0E20FF31F108208C0EBE0F0E0EC0FFD1F2B
S11302C0E20FF31F9F5090838F5F8A30A8F280E083
S11302D029C0282F30E0E216F30641F4E5E1F0E00E
S11302E0EC0FFD1FEE0DFF1D60821BC0282F30E0B8
S11302F0E5E1F0E0EC0FFD1FE20FF31F90819F306A
S113030040F4E5E1F0E0EC0FFD1FE20FF31F108273
S113031008C0E5E1F0E0EC0FFD1FE20FF31F9F5072
S113032090838F5F8A30A8F2E114F10421F029E070
S1130330E216F10421F481E0D11080E0D82EDD2012
S113034021F08FEFE81AF80A03C091E0E91AF108E6
S113035082EE880D843C20F081E0C11080E0C82E3C
S113036082EE870D843C20F081E0B11080E0B82E4D
S113037082EE860D843C20F081E0A11080E0A82E5E
S1130380CC2019F0AFE08A0E02C0B1EF8B0EBB2077
S113039019F02FE0720E02C081EF780EAA2019F036
S11303A09FE0690E02C0A1EF6A0EBFEF21EE84E068
S11303B0B15020408040E1F700C000000ECF84B16E
S11303C0876084B982E58CBD81E08DBD08958EBDC2
S10F03D00DB407FEFDCF0895F894FFCF94
S9030000FC
