S01000004C45442D73686F772E7372656351
S113000071C0000079C0000077C0000075C0000016
S113001073C0000071C000006FC000006DC000001C
S11300206BC0000069C0000067C0000065C000002C
S113003063C0000061C000005FC000005DC000003C
S11300405BC0000059C0000057C0000055C000004C
S113005053C0000051C000004FC000004DC000005C
S11300604BC0000049C0000047C0000045C000006C
S113007043C0000041C000003FC000003DC000007C
S11300803BC0000039C0000037C0000035C000008C
S113009033C0000031C000002FC000002DC000009C
S11300A02BC0000029C0000027C0000025C00000AC
S11300B023C0000021C000001FC000001DC00000BC
S11300C01BC0000019C0000017C0000015C00000CC
S11300D013C0000011C000000FC000000DC00000DC
S11300E00BC0000011241FBECFEFD1E2DEBFCDBF95
S11300F000E00CBFACD0B6C083CF8FEF81B984B918
S1130100089582B995B9089522B185B190E0982FE8
S11301108827822B0895CF93C0E014C081E090E03B
S11301200C2E02C0880F991F0A94E2F7EADF8CE2D2
S113013091E005C0E0E9F1E03197F1F7019700970C
S1130140C9F7CF5FC03150F3CF910895CF93C0E08A
S113015014C081E090E00C2E02C0880F991F0A940D
S1130160E2F7CFDF8CE291E005C0E0E9F1E03197FE
S1130170F1F701970097C9F7CF5FC03150F3CFE093
S113018014C081E090E00C2E02C0880F991F0A94DD
S1130190E2F7B7DF8CE291E005C0E0E9F1E03197E6
S11301A0F1F701970097C9F7C150C111EACFCF9178
S11301B0089580E090E0A5DF20E028C032B1422F0E
S11301C050E081E090E0022E02C0880F991F0A944B
S11301D0E2F7832B82B935B181E090E0283010F446
S11301E080E090E04850510902C0880F991F4A9559
S11301F0E2F7832B85B98CE291E005C0E0E9F1E0F8
S11302003197F1F701970097C9F72F5F2031B0F2CA
S11302100895CF93C0E017C077DF21E030E00C2EC3
S113022002C0220F331F0A94E2F78227932769DF63
S11302308CE291E005C0E0E9F1E03197F1F7019734
S11302400097C9F7CF5FC03138F3CF91089555DFD8
S113025062DF7CDF80EE9EE20197F1F7DADFD9DF1F
S10B0260A8DFF6CFF894FFCFEC
S9030000FC
